:030000000210F7F4
:0C10F700787FE4F6D8FD75815C02113EA4
:1008820000A8C000005C6310207F793D30377C7384
:10089200003F065B4F666D7D077F6FF8CFF7395ECD
:1008A2002304230823082104230825101510210CF2
:1008B200150C130C1608170817041608150623053D
:1008C2002505260824042508230821042204170CE0
:1008D200210C150C130C1608170817041608150618
:1008E20023052505260824042508230821042204BB
:1008F20017142504240424042308230815041604C9
:10090200210816042104220C2504240424042308AB
:100912002304FF043108310431182504240424047B
:100922002308230815041604210816042104220CA6
:10093200250C240C2320000021082410240824085C
:1009420024082308220921080000000100000200F7
:10095200000100020000010000020000010000008E
:10096200010000000202000002000001000100007C
:10097200000200000100000100000200020000016C
:10098200000002000001000200000100000200015C
:10099200000200000001000100020001000002004C
:1009A2000001000000191B000906180B17000000C7
:0A09B2000000000906180019061ADB
:081797007F6C7E91DEFEDFFC99
:01179F002227
:10159400E51964017029E511FD7F7712172B1217E5
:1015A40097E4FD7F7812172B121797E4FD7F7912C9
:0F15B400172B121797E4FD7F8012172BE4F51900
:0115C3002205
:1013AE007F011214D7BF010FE510B4010AE4F51046
:1013BE00750E01F511F51AE4FF1214D7BF011CE5E5
:1013CE0012B401057512028008E512B402037512FB
:1013DE0001E50B24F7B51203751A017F021214D71B
:1013EE00BF010C751001750907750AD0E4F51322BB
:10064900E50E7021E5106401701B750B0575220616
:1006590075230775240875250975260C75270C75EA
:10066900280C02078FE50E640160030207A7E51253
:10067900B4010AE529B40205750B0B8015E512B41E
:10068900020AE529B40105750B0A8006E512240260
:10069900F50BE5187012F522F523F524F525F52655
:1006A900F527F52805188063E51C451B705D0511C4
:1006B90085222985232285242385252485262585A8
:1006C9002726852827E5182401FFE433FED3EF9474
:1006D90040EE64809480401C751801D3E50A94E8C3
:1006E900E509940340107438250AF50A74FF3509A1
:1006F900F50980020518E51890094C93F528E512CB
:10070900B52908751A017F031215ECE51A64017001
:1007190075750B0775220775230CC3E50D9511E552
:100729000C94005011751301751901750900750AAA
:100739006D121594801F7BFF7A09793A754500750A
:1007490046127547F0AD0FAF08121303E4F510F523
:100759001AF50EF5187F011215EC75240B7525177E
:10076900E51175F06484240DF526E51175F00A8408
:1007790075F00A84E5F0240DF527E51175F00A8472
:10078900E5F0240DF52885244385254485264585EE
:100799002746852847AB23AD22AF0B12169EE513DA
:0707A90064016003020881F6
:1007B000782A7C00FD7BFF7A0979A6FE7F1612015C
:1007C0000EE51C451B701A750B097522067523185A
:1007D000F52475251975260675271A75280D020842
:1007E00060AE1BAF1C7C007D05120173ED4C707078
:1007F00085220B852322852423852524852625858E
:100800002726852827C3E51C942DE51B940050025C
:10081000803CE51C642D451B7008E51175F064846F
:100820008026E51C6432451B700EE51175F00A84C4
:1008300075F00A84E5F08010E51C6437451B700EE6
:10084000E51175F00A84E5F0240DF5288012AE1B41
:10085000AF1C7C007D05120173742A2FF8E6F52881
:10086000E4F510F51AF50EF5188524438525448521
:100870002645852746852847AB23AD22AF0B1216A8
:010880009ED9
:010881002254
:10171200051CE51C7002051BD3950AE51B950940C3
:0917220005E4F51BF51C02064963
:0317CD000213AE56
:100F13001216BE1216F712167E1217617BFF7A178E
:100F230079CD7F0412120E7BFF7A1779127F02129A
:100F3300120E7D07E4FF1217A075085A750FFC7592
:100F43001201E4F50EF51A751001F518F519750976
:100F530007750AD0F511F5137F771216DB8F147F0F
:100F6300781216DB8F157F791216DB8F167F8012AE
:100F730016DB8F177E00E5167810C333CE33CED839
:100F8300F9FDAC067E00E5177818C333CE33CED80F
:100F9300F9FFEE4CFCEF4DFDE5154CFEEDFFEEF5D4
:100FA3000CEF4514F50D1217C11215561217CDE5A6
:090FB3000EB401F512171280F0D2
:0415C400155C155C41
:1015C8001217A9A85CA60608A607A85CE6FE08E606
:0F15D800FF4E600BEF24FFFFEE34FFFE1217B241
:0515E700055C055C221B
:10167E0053B1EF43B2101217D3E4F5D975DA49D24C
:10168E00DE90003F74FFF0A37415F0A374C4F02233
:08128B008E288F298C2A8D2B7F
:101293001217A9EF4E7066AF2BAE2A1217B2C3E531
:1012A30029940AE5289400404BE47B18FAF9F89056
:1012B300088212032512027FC006C007AE28AF2999
:1012C300AB07AA06E4F9F8D007D00612027FAB07F2
:1012D300AA06AFF9EFFEADE97C00E42DFFEC3ECFAB
:1012E3002BCF3AAD07FCAF03AE02121740D2D8435F
:0F12F300DA0180061217D353DAFE7F02227F033F
:0113020022C8
:0C178B001217A9EF4E7002FF227F01220E
:100C0500E4F580900089E0FFB40800505F900C196E
:100C1500F8282873020C31020C37020C3D020C43F4
:100C2500020C49020C53020C5D020C67C2A3C2A25E
:100C35008016C2A3C2A2801AC2A3C2A2801EC2A3EA
:100C4500C2A28022C2A3D2A2C2A1C2A08020C2A3F6
:100C5500D2A2C2A1D2A08016C2A3D2A2D2A1C2A002
:100C6500800CC2A3D2A2D2A1D2A08002D2A3C3EF8C
:100C7500648094885029900089E0FF3395E0FE74E4
:100C8500802FF58274003EF583E0FF3395E0FE7416
:100C9500862FF58274083EF583E493F580801E90D7
:100CA5000089E0FFB408133395E0FE74802FF582C8
:100CB50074003EF583E0F5808003E4F58090007FC5
:100CC500E0FF900089E004FEF0D3EF6480F8EE6465
:100CD50080984014E0D36480948850047408F0220E
:090CE50090007EE0900089F022ED
:1016F700E4F5937594FF5395F043960F90002A7481
:0B170700FFF0A3740CF0A37405F022A7
:0917A00090007EEFF0A3EDF022B1
:10169E00900080EFF0A3EDF0A3EBF0A3E543F0A3F1
:1016AE00E544F0A3E545F0A3E546F0A3E547F022B7
:0617BB00900088EFF0220F
:100DBB00011F0049008B949400949400949400417B
:030DCB00008A1E7D
:020AE200155CA1
:100AE40020B20690008BE014F020B30690008EE054
:100AF40014F0209706900091E014F090008AE0141E
:100B0400F06003020C02741EF0A85CE4F6A85CE634
:100B1400FFC3648094834003020C02EF3395E0FE2C
:100B240090008B75F003EF120341EE75F003A425DA
:100B340083F583E0C39480503990008C75F003EF03
:100B4400120341EE75F003A42583F583E0D394806A
:100B5400405AE6FF3395E0FE90008D75F003EF12E6
:100B64000341EE75F003A42583F5837401F0F51FAA
:100B7400803AA85CE6FF3395E0FE90008C75F003A4
:100B8400EF120341EE75F003A42583F583E0C394CB
:100B940080501990008D75F003EF120341EE75F04B
:100BA40003A42583F5837402F0751F01A85CE6FF96
:100BB400FD3395E0FC90008B75F003ED120341ECDE
:100BC40075F003A42583F583E0FE90008C75F00393
:100BD400ED120341EC75F003A42583F583EEF0EFE9
:100BE4003395E0FE90008B75F003EF120341EE7530
:0E0BF400F003A42583F5837494F006020B1120
:030C0200055C226C
:02177000155C06
:09177200A85CA61FE4F51FE6FFC8
:03177B00055C22E8
:1016BE0090003074FFF0A37417F0A37470F09000D4
:0D16CE002D74FFF0A3740AF0A374E2F02263
:1014D700EF600764016003BF0233EFFD3395E0FC63
:1014E70090008D75F003ED120341EC75F003A42510
:1014F70083F583E0FE90008D75F003ED120341EC58
:0F15070075F003A42583F583E4F0AF06227F037C
:0115160022B2
:100DCE004100000A4100290A41006D0A044E00004C
:100DDE0000000156004600670000FFFF8FFFC10AAA
:100DEE00C105C108C101C10B60240005FF000AFF47
:100DFE00000AFF000AFF000AFF000AFF000AFF00B8
:100E0E000AFF000AFF000AFF000AFF000AFF000A9D
:100E1E006036002AFF000AFF000AFF17D0FF000A03
:100E2E00FF17D0FF000AFF17D0FF000AFF000AFFCE
:100E3E00000AFF17D0FF17D0FF17D0FF17D0FF0003
:0A0E4E000AFF000AFF000AFF000A75
:01000A0022D3
:0317D0007F002275
:10144C00438E805389F07BE07A28790178009008EC
:10145C0082120325121493EFF404F58A7BE07A28A8
:10146C0079017800900882120325121493C3E49F2B
:10147C00FFE49EFE74019DFDE49CFC7808120311B0
:07148C008F8CD28CD2A92243
:03000B000213FEDF
:0413FE00C0E0C0D0BB
:10140200D5480A75484C300A020556D20AA2037220
:10141200045032154AE54A702C854C4AD2073009ED
:1014220017E54D6007154D438F018019538FFEC29A
:10143200B5D55811C209800D054BE54BD394064032
:0514420004D206C20304
:05144700D0D0D0E0321E
:10135B00300B47C20B900882120325781012031131
:10136B008E1D8F1E900003E0FEA3E0FFE4FCFD7BCF
:10137B0019FAF9F81201F4C006C007AE1DAF1EAB87
:10138B0007AA06E4F9F8D007D006121493780312D3
:10139B000311900065EEF0A3EFF0900065E0FEA363
:0213AB00E0FF61
:0113AD00221D
:0917A900900067E0FEA3E0FF22BE
:0917B200900067EEF0A3EFF022B5
:1017400090006BEEF0A3EFF0900069ECF0A3EDF0E9
:011750002276
:0317D300C2B4227B
:03003B00020FBCF5
:100FBC00C0E0C083C082C0D075D000C004C005C0E2
:030FCC0006C00755
:100FCF0030DF04C2DF807D30DA04C2DA807630D9B8
:100FDF003DC2D9AFFBEFFEADEB7C00E42DFFEC3E45
:100FEF0020000E900001F0A3EFF075DB11D200800E
:100FFF0053FE900001E0FCA3E0FDC3EF9DFFEE9CCC
:10100F00A3F0A3EFF075DB00C200D20B803630D80F
:10101F0033C2D8900067E07002A3E06022B2B490B0
:10102F000069E0FEA3E0F5EAEEF5FAA3E0FEA3E027
:10103F00FF90006AE02FF0900069E03EF08005C25B
:04104F00B453DAFEBE
:10105300D007D006D005D004D0D0D082D083D0E042
:01106300325A
:0617C10012144CD2AF220D
:101183003004047F0180027F002009047E01800275
:101193007E00EE5F6074E557C395495068300236B0
:1011A300754D01E557131313541FAB59AA5AA95B85
:1011B300F582758300120134FFE557540704FEEFEF
:1011C300A806088002C333D8FC30D70575580380BE
:1011D3002F755801802AAB59AA5AA95B75F002E50D
:1011E30057A4F58285F083120134F54DE55775F068
:1011F30002A429F9EA35F0FA900001120134F558F6
:0A1203000557D20922C204438F10E0
:01120D0022BE
:100CEE00900000E014F0701F740AF0D205900029F5
:100CFE00E014F07012740AF0D20890006DE014F057
:100D0E007005740AF0D20190002AA3E0FAA3E0F96C
:100D1E0012034D90002DA3E0FAA3E0F912034D90BB
:100D2E000039A3E0FAA3E0F912034D900045A3E0C9
:100D3E00FAA3E0F912034D900054A3E0FAA3E0F9F0
:100D4E0012034D90005DA3E0FAA3E0F912034D905B
:100D5E000005A3E0FAA3E0F912034D90004BA3E0C7
:100D6E00FAA3E0F912034DEF600C90001DA3E0FA18
:100D7E00A3E0F912034D90004EA3E0FAA3E0F9129E
:100D8E00034DEF600C900020A3E0FAA3E0F91203EC
:100D9E004D900051A3E0FAA3E0F912034DEF600C61
:0D0DAE00900023A3E0FAA3E0F912034D2208
:1010640090003FA3E0FAA3E0F912034D900042A3DD
:10107400E0FAA3E0F912034D900033A3E0FAA3E0F1
:10108400F912034D900008A3E0FAA3E0F912034D0E
:10109400900030A3E0FAA3E0F912034DEF600C9046
:1010A4000011A3E0FAA3E0F912034D900036A3E087
:1010B400FAA3E0F912034DEF600C900017A3E0FAD5
:1010C400A3E0F912034D900048A3E0FAA3E0F9125B
:1010D400034DEF600C90001AA3E0FAA3E0F91203A9
:1010E4004D30060EC206900026A3E0FAA3E0F912E2
:0310F400034D2287
:1015170090000BA3E0FAA3E0F912034D90003CA35F
:10152700E0FAA3E0F912034DEF600C900014A3E07A
:10153700FAA3E0F912034D900057A3E0FAA3E0F9EC
:0F15470012034D90005AA3E0FAA3E0F902034DFE
:10000E00AF51AE50AD4FAC4E900060120335900024
:10001E0064E556F0E4F551F550F54FF54EF5569072
:0B002E00000EA3E0FAA3E0F902034D6E
:10155600300705C207121183300A05C20A120CEEC3
:10156600300505C205121064300805C208121517A9
:10157600300105C20112000EE5512401F551E43592
:0E15860050F550E4354FF54FE4354EF54E224A
:10120E008B228A238924EFB40C005070901221F89F
:10121E0028287302124502124A02124F0212540279
:10122E00125902125E02126302126802126D02124B
:10123E007202127702127C900005803590000880B1
:10124E003090000B802B90000E8026900011802194
:10125E00900017801C900014801790001A80129036
:10126E00001D800D900020800890002380039000C8
:0D127E0026E522F0A3E523F0A3E524F022ED
:070003007B017A0079602205
:1009BC0000C400DC00F701060126014A017201881F
:1009CC0001B801EE020B024B029302E40310037018
:1009DC0003DC04160497052605C800DC00F7011596
:1009EC000126014A0172019F01B801EE022A024B55
:1009FC00029302E4033F037003DC045504970526BD
:100A0C0005C8067D00F701150137014A0172019FE7
:100A1C0001D201EE022A026E029302E4033F03A408
:100A2C0003DC045504DD057505C8067D0749010680
:100A3C000126014A015D018801B801EE020B024B4F
:100A4C00029302BA0310037003DC04160497052604
:100A5C000575062006E007B80126014A01720188D7
:100A6C0001B801EE022A024B029302E40310037058
:100A7C0003DC04550497052605C8062006E007B8D4
:100A8C0008AA014A0172019F01B801EE022A026E06
:100A9C00029302E4033F037003DC045504DD0526D6
:100AAC0005C8067D06E007B808AA09B9015D0188EA
:100ABC0001B801D2020B024B029302BA031003706D
:100ACC0003A40416049705260575062006E00749BD
:060ADC00082D092D0A4D52
:100E58004D007103000000000000000000000000C9
:060E69008F228D238B2473
:100E6F0012178BEF60037F0122E524D39400400615
:100E7F00E52494114028E524D394174006E52494E3
:100E8F0021401BE524D394274006E5249431400EDE
:100E9F00E524D394375007E522C394F950037F0319
:100EAF0022E524603DC4540F75F007A4FDACF0E5B6
:100EBF002275F015A42DFFE5F03CFEE52454077CC8
:100ECF00002FFFEC3EFEEF25E0FFEE33FE74D22F36
:100EDF00F58274E03EF583E493F526740193F527CC
:100EEF008005E4F526F527AF257E007C017D77127E
:100EFF000161AD231C120173AD07AC06AF27AE26FF
:030F0F0012128B30
:010F120022BC
:04035300155C155CC4
:1003570012178BEF70047F0180027F00900071E01D
:10036700FEB402047D0180027D00ED5F600302069A
:1003770044EEB4030AE490006FF0A3F00206449041
:100387000072E0FFB4F3047E0180027E00EFB4F157
:10039700047F0180027F00EF4E603E900074E0FE14
:1003A70075F06484FFEE75F00A8475F00A84ADF089
:1003B700E075F00A84ABF075430A900073E02407F8
:1003C700F54490006EE0FEC4540F240AF5457546C7
:1003D7000AEE5407F54712169E900072E0FFB4F339
:1003E700047E0180027E00EFB4F2047F0180027F69
:1003F70000EF4E700302049D900074E0FD7C007EC8
:10040700177F70120173A85CA607E6F975F002A4BE
:10041700FFC390007DE09F90007CE095F05070E076
:10042700FEA3E0FF7C007D0B120161E9FBFD1201D9
:1004370073A85C08A60790007CE475F0011201DE42
:10044700FED3E5F09BEE94004018A85C08E624F97B
:10045700FFE47EF0A807088005CEC313CE13D8F9B2
:10046700801FA85C08E6FF740F7E00A807088005B8
:10047700C333CE33CED8F97804CEA2E713CE13D840
:10048700F8A85C08F6A85C08E6FF1217BB8007E42B
:1004970090007CF0A3F0900078E0FEA3E0FFC3900B
:1004A700007BE09F90007AE09E400302063E121711
:1004B7008BEF6003020644900075E0FBA3E0FAA30C
:1004C700E0F990007AE0FEA3E0F5828E8312013412
:1004D700FFD3943750030205D9EF241024FC507939
:1004E700604524FE700302058414700302059A24F4
:1004F7000260030205C8900075E0FBA3E0FAA3E0E1
:10050700F990007AE475F0011201C885F082F5834D
:10051700120134900073F090007BE004F070989023
:10052700007AE004F08090900075E0FBA3E0FAA366
:10053700E0F990007AE475F0011201C885F082F5C0
:1005470083120134900074F090007BE004F0706E29
:1005570090007AE004F00204BE900075E0FBA3E08F
:10056700FAA3E0F990007AE475F0011201DE85F054
:1005770082F583120134900072F00204BE90007A73
:10058700E475F0011201C8AFF090006FF0A3EFF02F
:100597000204BE90006FE0FEA3E0FF4E60129000E1
:1005A7007AEEF0A3EFF0E490006FF0A3F00204BE40
:1005B70090007BE004F0700690007AE004F00204FB
:1005C700BE90007BE004F0700690007AE004F00231
:1005D70004BE900078E0FEA3E0FFC390007BE09F9D
:1005E70090007AE09E5056900075E0FBA3E0FAA3D6
:1005F700E0F990007AE475F0011201DE85F082F5EA
:100607008312013490006EF0900073E0FFA3E0FDC9
:10061700A3E0FBA3E0FAA3E0F990007AE475F00108
:100627001201DE85F082F583120134F52590006E04
:0D063700E0FB120E6980069000717403F064
:05064400055C055C22CD
:0F17610090004274FFF0A37403F0A37453F022BE
:10130300900071E0B4030DE490007AF0A3F0A3F031
:10131300A3F0C20CE5476004900072F0EF60049004
:101323000074F0ED6004900073F0E94A60047F01FB
:1013330080027F00E546454560047E0180027E0011
:10134300EE5F6013900075EBF0A3EAF0A3E9F0A35E
:08135300E545F0A3E546F02298
:1015EC00BF02047E0180027E00BF01047D018002E7
:1015FC007D00ED4EFEBF03047D0180027D00ED4EAB
:08160C006005900071EFF0226F
:0617C700900071E0FF221A
:10175100D2C0000000D2CD000000C2C000000022B3
:0D177E00C2C0000000D2CD000000D2C02289
:0B16140012163812161FAF0512163810
:10161F00E4FFD2CD30C009EFC394FF50030F80F425
:08162F00000000C2CD00000024
:011637002290
:10163800E4FEEF25E0FFC2CD00000092C0000000EC
:10164800D2CD0000000EBE08E9C2CD000000D2C015
:031658000000008F
:01165B00226C
:10165C00C2CD000000D2C000E4FED2CD0000EF25C8
:10166C00E0FDA2C0E4334DFF0000C2CD000EBE0869
:01167C00E984
:01167D00224A
:10172B00AC071217517FA012163812161FAF0412F6
:05173B00161402177EE8
:0216DB00AD0759
:1016DD001217517FA01216141217517FA11216382E
:0916ED0012161F12165C12177E82
:0116F60022D1
:10110300020F13E493A3F8E493A34003F68001F2E0
:1011130008DFF48029E493A3F85407240CC8C333ED
:10112300C4540F4420C8834004F456800146F6DFBC
:10113300E4800B0102040810204080900DBBE47E84
:10114300019360BCA3FF543F30E509541FFEE493B1
:10115300A360010ECF54C025E060A840B8E493A378
:10116300FAE493A3F8E493A3C8C582C8CAC583CAA3
:10117300F0A3C8C582C8CAC583CADFE9DEE780BE5B
:010E68000089
:10003E00E709F608DFFA8046E709F208DFFA803EA4
:10004E0088828C83E709F0A3DFFA8032E309F60891
:10005E00DFFA8078E309F208DFFA807088828C83F9
:10006E00E309F0A3DFFA806489828A83E0A3F608AD
:10007E00DFFA805889828A83E0A3F208DFFA804C87
:10008E0080D280FA80C680D4806980F2803380105E
:10009E0080A680EA809A80A880DA80E280CA8033C7
:1000AE0089828A83ECFAE493A3C8C582C8CCC5833F
:1000BE00CCF0A3C8C582C8CCC583CCDFE9DEE7800F
:1000CE000D89828A83E493A3F608DFF9ECFAA9F08E
:1000DE00EDFB2289828A83ECFAE0A3C8C582C8CCE4
:1000EE00C583CCF0A3C8C582C8CCC583CCDFEADEFD
:1000FE00E880DB89828A83E493A3F208DFF980CC5F
:10010E0088F0EF60010E4E60C388F0ED2402B40457
:10011E000050B9F582EB2402B4040050AF232345FE
:06012E00822390008E7395
:10013400BB010CE58229F582E5833AF583E0225080
:1001440006E92582F8E622BBFE06E92582F8E222CA
:0D015400E58229F582E5833AF583E49322E4
:10016100EF8DF0A4A8F0CF8CF0A428CE8DF0A42EB2
:02017100FE226C
:10017300BC000BBE0029EF8DF084FFADF022E4CC70
:10018300F875F008EF2FFFEE33FEEC33FCEE9DEC39
:10019300984005FCEE9DFE0FD5F0E9E4CEFD22ED7F
:1001A300F8F5F0EE8420D21CFEADF075F008EF2FC9
:1001B300FFED33FD4007985006D5F0F222C398FDBA
:0501C3000FD5F0EA2257
:1001C800C5F0F8A3E028F0C5F0F8E58215827002C2
:0601D8001583E038F0225F
:1001DE00A3F8E0C5F025F0F0E582158270021583D4
:0601EE00E0C838F0E82231
:1001F400E88FF0A4CC8BF0A42CFCE98EF0A42CFCAA
:100204008AF0EDA42CFCEA8EF0A4CDA8F08BF0A427
:100214002DCC3825F0FDE98FF0A42CCD35F0FCEB86
:100224008EF0A4FEA9F0EB8FF0A4CFC5F02ECD394B
:0F023400FEE43CFCEAA42DCE35F0FDE43CFC22B8
:1002430075F008758200EF2FFFEE33FECD33CDCC72
:1002530033CCC58233C5829BED9AEC99E5829840F5
:100263000CF582EE9BFEED9AFDEC99FC0FD5F0D6D2
:10027300E4CEFBE4CDFAE4CCF9A88222B800C1B9FC
:100283000059BA002DEC8BF084CFCECDFCE5F0CB3A
:10029300F97818EF2FFFEE33FEED33FDEC33FCEB73
:1002A30033FB10D703994004EB99FB0FD8E5E4F92E
:1002B300FA227818EF2FFFEE33FEED33FDEC33FC1B
:1002C300C933C910D7059BE99A4007EC9BFCE99A0F
:1002D300F90FD8E0E4C9FAE4CCFB2275F010EF2F54
:1002E300FFEE33FEED33FDCC33CCC833C810D70754
:1002F3009BEC9AE899400AED9BFDEC9AFCE899F88F
:0E0303000FD5F0DAE4CDFBE4CCFAE4C8F92221
:10149300C2D5E830E70FB2D5E4C39BFBE49AFAE484
:1014A30099F9E498F8EC30E717B2D51214C912028F
:1014B3007FE4C39BFBE49AFAE499F9E498F8800388
:1014C30012027F30D50DE4C39FFFE49EFEE49DFD31
:0414D300E49CFC2277
:10031100E86010ECA2E713FCED13FDEE13FEEF1302
:04032100FFD8F022EF
:10032500E493FC740193FD740293FE740393FF221E
:0C033500ECF0A3EDF0A3EEF0A3EFF0223B
:0C034100A42582F582E5F03583F58322C7
:06034D008A838982E4733B
:00000001FF
